:020000040800F2
:1000000008060020ED000008F1000008F3000008D9
:10001000F5000008F7000008F900000800000000E3
:10002000000000000000000000000000FB000008CD
:10003000FD00000800000000FF00000801010008AA
:100040000301000803010008030100080301000880
:100050000301000803010008030100080301000870
:100060000301000803010008030100080301000860
:100070000301000803010008030100080301000850
:100080000301000803010008030100080301000840
:100090000301000803010008030100080301000830
:1000A0000301000803010008030100080301000820
:1000B0000301000803010008030100080301000810
:1000C0000301000803010008030100080301000800
:1000D00003010008030100080301000803010008F0
:1000E00003010008030100080301000800F066B9DD
:1000F000FEE7FEE7FEE7FEE7FEE7FEE7FEE7FEE7D8
:10010000FEE7FEE780B500F001F880BD84B0002076
:100110000390029041F20001C4F20201086840F429
:1001200080300860FFE741F20000C4F2020000687E
:1001300000F400300290039801300390FFE7029929
:100140000020019039B9FFE70398B0F5A06018BF0F
:1001500001200190FFE70198C0070028E3D1FFE7E5
:1001600041F20000C4F2020000688003002803D5B9
:10017000FFE70120029002E000200290FFE70298D2
:10018000012851D1FFE742F20001C4F202010868E0
:1001900040F010000860086820F007000860086858
:1001A00040F00200086041F20401C4F20201009133
:1001B0000868086008680860086840F480600860A3
:1001C000086820F47C100860086840F4E8100860B3
:1001D00041F20001C4F20201086840F0807008603A
:1001E000FFE741F20000C4F202000068800100282D
:1001F00001D4FFE7F5E741F20401C4F20201086807
:1002000020F003000860086840F002000860FFE783
:1002100041F20400C4F20200006800F00C0008285B
:1002200001D0FFE7F4E700E0FFE704B0704700000B
:1002300084B0002003900290019041F20400C4F2C7
:100240000200006800F00C0003900398009040B199
:10025000FFE7009804280ED0FFE70098082814D084
:1002600056E040F20001C2F2000141F20020C0F26B
:100270007A00086056E040F20001C2F2000141F24B
:100280000020C0F27A0008604CE041F20400C4F2A1
:100290000200016801F470110291006800F48030DE
:1002A00001900299022000EB91400290019860B900
:1002B000FFE7029840F60011C0F23D01484340F2CA
:1002C0000001C2F20001086021E041F20400C4F222
:1002D00002000068800300280CD5FFE7029840F672
:1002E0000011C0F23D01484340F20001C2F200019A
:1002F00008600BE0029841F20021C0F27A01484305
:1003000040F20001C2F200010860FFE7FFE709E0E8
:1003100040F20001C2F2000141F20020C0F27A0076
:100320000860FFE741F20400C4F202000068C0B2B6
:10033000010940F2F830C0F60000405C0390039AD7
:1003400040F20001C2F200010868D040086004B029
:100350007047000080B541F20002C4F2020210684A
:1003600040F00100106041F20401C4F2020108688B
:100370000023CFF6FF031840086010684FF6FF73A4
:10038000CFF6F66318401060106820F480201060EB
:10039000086820F4FE00086041F20801C4F202017E
:1003A0004FF41F000860FFF7ADFE4EF60851CEF285
:1003B00000014FF00060086080BD00004FF01000A9
:1003C000084908604FF04430074908600748084969
:1003D00008604FF40050074908604FF000000549DD
:1003E0000860F6E71810024000100140444434440D
:1003F000041001400C10014000000000000000004B
:10040000010203040607080900A24A0400000000D4
:0400000500000000F7
:00000001FF
